:020000020000FC
:1000000002E00EBF0FE50DBF0FEF04BBFFEFF7BB24
:100010000FE30ABBAFE3A2BB0894EE2726E6322F1C
:1000200045D0C03021F0C130D9F0C23009F1E1E053
:10003000E5BB52D02DD048D0EE0FE030C9F700C05C
:10004000E0E8E5BB49D024D0E695E030D1F7E8CF31
:10005000E7E0E5BB41D01CD0EE0FE030D1F700C0A7
:10006000E0EEE5BB39D014D0E695E030D1F7D8CF3B
:10007000E3E0E5BB31D00CD0EE0FE030D1F700C0AB
:10008000E0ECE5BB29D004D0E695E030D1F7C8CF4D
:1000900019B310951E23103009F408951DD0E5E51D
:1000A000E5BBB39511D0BF3FE1F7089536953227F0
:1000B0002695330F330F330F330F330F330F322B9C
:1000C000232FC22FC37008950ED00FEF08BB0BD0A3
:1000D00000E008BB08D008958FEF9FEF9A95F1F7E5
:0E00E0008A95D9F70895DFEFDA95F1F70895C4
:00000001FF
